{
  "_format": "hh-sol-artifact-1",
  "contractName": "WebPortal",
  "sourceName": "contracts/WebPortal.sol",
  "abi": [
    {
      "inputs": [],
      "stateMutability": "payable",
      "type": "constructor"
    },
    {
      "anonymous": false,
      "inputs": [
        {
          "indexed": true,
          "internalType": "address",
          "name": "from",
          "type": "address"
        },
        {
          "indexed": false,
          "internalType": "uint256",
          "name": "timestamp",
          "type": "uint256"
        },
        {
          "indexed": false,
          "internalType": "string",
          "name": "message",
          "type": "string"
        }
      ],
      "name": "NewWave",
      "type": "event"
    },
    {
      "inputs": [],
      "name": "getAllWaves",
      "outputs": [
        {
          "components": [
            {
              "internalType": "address",
              "name": "waver",
              "type": "address"
            },
            {
              "internalType": "string",
              "name": "message",
              "type": "string"
            },
            {
              "internalType": "uint256",
              "name": "timestamp",
              "type": "uint256"
            }
          ],
          "internalType": "struct WebPortal.Wave[]",
          "name": "",
          "type": "tuple[]"
        }
      ],
      "stateMutability": "view",
      "type": "function"
    },
    {
      "inputs": [],
      "name": "getTotalWaves",
      "outputs": [
        {
          "internalType": "uint256",
          "name": "",
          "type": "uint256"
        }
      ],
      "stateMutability": "view",
      "type": "function"
    },
    {
      "inputs": [
        {
          "internalType": "address",
          "name": "",
          "type": "address"
        }
      ],
      "name": "lastWavedAt",
      "outputs": [
        {
          "internalType": "uint256",
          "name": "",
          "type": "uint256"
        }
      ],
      "stateMutability": "view",
      "type": "function"
    },
    {
      "inputs": [],
      "name": "totalWaves",
      "outputs": [
        {
          "internalType": "uint256",
          "name": "",
          "type": "uint256"
        }
      ],
      "stateMutability": "view",
      "type": "function"
    },
    {
      "inputs": [
        {
          "internalType": "string",
          "name": "_message",
          "type": "string"
        }
      ],
      "name": "wave",
      "outputs": [],
      "stateMutability": "nonpayable",
      "type": "function"
    },
    {
      "inputs": [
        {
          "internalType": "uint256",
          "name": "",
          "type": "uint256"
        }
      ],
      "name": "waves",
      "outputs": [
        {
          "internalType": "address",
          "name": "waver",
          "type": "address"
        },
        {
          "internalType": "string",
          "name": "message",
          "type": "string"
        },
        {
          "internalType": "uint256",
          "name": "timestamp",
          "type": "uint256"
        }
      ],
      "stateMutability": "view",
      "type": "function"
    }
  ],
  "bytecode": "0x60806040526200004f6040518060400160405280601281526020017f536d61727420436f6e74726163746f6f6f7200000000000000000000000000008152506200007760201b620007d81760201c565b606444426200005f9190620001c4565b6200006b919062000261565b60018190555062000308565b62000117816040516024016200008e919062000184565b6040516020818303038152906040527f41304fac000000000000000000000000000000000000000000000000000000007bffffffffffffffffffffffffffffffffffffffffffffffffffffffff19166020820180517bffffffffffffffffffffffffffffffffffffffffffffffffffffffff83818316178352505050506200011a60201b60201c565b50565b60008151905060006a636f6e736f6c652e6c6f679050602083016000808483855afa5050505050565b60006200015082620001a8565b6200015c8185620001b3565b93506200016e8185602086016200022b565b6200017981620002f7565b840191505092915050565b60006020820190508181036000830152620001a0818462000143565b905092915050565b600081519050919050565b600082825260208201905092915050565b6000620001d18262000221565b9150620001de8362000221565b9250827fffffffffffffffffffffffffffffffffffffffffffffffffffffffffffffffff0382111562000216576200021562000299565b5b828201905092915050565b6000819050919050565b60005b838110156200024b5780820151818401526020810190506200022e565b838111156200025b576000848401525b50505050565b60006200026e8262000221565b91506200027b8362000221565b9250826200028e576200028d620002c8565b5b828206905092915050565b7f4e487b7100000000000000000000000000000000000000000000000000000000600052601160045260246000fd5b7f4e487b7100000000000000000000000000000000000000000000000000000000600052601260045260246000fd5b6000601f19601f8301169050919050565b61132380620003186000396000f3fe608060405234801561001057600080fd5b50600436106100625760003560e01c8063291bcab314610067578063449d46c0146100855780639a2cdc08146100a1578063a42a4663146100bf578063bd43a908146100ef578063c781267a1461010d575b600080fd5b61006f61013f565b60405161007c9190610f9e565b60405180910390f35b61009f600480360381019061009a9190610b30565b610145565b005b6100a9610542565b6040516100b69190610f9e565b60405180910390f35b6100d960048036038101906100d49190610b07565b61058d565b6040516100e69190610f9e565b60405180910390f35b6100f76105a5565b6040516101049190610e9a565b60405180910390f35b61012760048036038101906101229190610b71565b6106f6565b60405161013693929190610e5c565b60405180910390f35b60005481565b42601e600360003373ffffffffffffffffffffffffffffffffffffffff1673ffffffffffffffffffffffffffffffffffffffff1681526020019081526020016000205461019291906110bb565b106101d2576040517f08c379a00000000000000000000000000000000000000000000000000000000081526004016101c990610f5e565b60405180910390fd5b42600360003373ffffffffffffffffffffffffffffffffffffffff1673ffffffffffffffffffffffffffffffffffffffff16815260200190815260200160002081905550600160008082825461022891906110bb565b9250508190555061026e6040518060400160405280600d81526020017f257320686173207761766564210000000000000000000000000000000000000081525033610871565b600260405180606001604052803373ffffffffffffffffffffffffffffffffffffffff16815260200183815260200142815250908060018154018082558091505060019003906000526020600020906003020160009091909190915060008201518160000160006101000a81548173ffffffffffffffffffffffffffffffffffffffff021916908373ffffffffffffffffffffffffffffffffffffffff160217905550602082015181600101908051906020019061032d9291906109d2565b5060408201518160020155505060006064600154424461034d91906110bb565b61035791906110bb565b61036191906111c1565b90506103a26040518060400160405280601681526020017f52616e646f6d20232067656e6572617465643a202573000000000000000000008152508261090d565b8060018190555060328110156104ee576103f16040518060400160405280600781526020017f257320776f6e210000000000000000000000000000000000000000000000000081525033610871565b6000655af3107a400090504781111561043f576040517f08c379a000000000000000000000000000000000000000000000000000000000815260040161043690610f7e565b60405180910390fd5b60003373ffffffffffffffffffffffffffffffffffffffff168260405161046590610e47565b60006040518083038185875af1925050503d80600081146104a2576040519150601f19603f3d011682016040523d82523d6000602084013e6104a7565b606091505b50509050806104eb576040517f08c379a00000000000000000000000000000000000000000000000000000000081526004016104e290610f3e565b60405180910390fd5b50505b3373ffffffffffffffffffffffffffffffffffffffff167f5f7e16dc676677766a70e9c5628aa6c54ddb8b6e5188e2ae1e1f17f1ffbea7164284604051610536929190610fb9565b60405180910390a25050565b60006105856040518060400160405280601781526020017f7765206861766520256420746f74616c2077617665732100000000000000000081525060005461090d565b600054905090565b60036020528060005260406000206000915090505481565b60606002805480602002602001604051908101604052809291908181526020016000905b828210156106ed57838290600052602060002090600302016040518060600160405290816000820160009054906101000a900473ffffffffffffffffffffffffffffffffffffffff1673ffffffffffffffffffffffffffffffffffffffff1673ffffffffffffffffffffffffffffffffffffffff1681526020016001820180546106529061118f565b80601f016020809104026020016040519081016040528092919081815260200182805461067e9061118f565b80156106cb5780601f106106a0576101008083540402835291602001916106cb565b820191906000526020600020905b8154815290600101906020018083116106ae57829003601f168201915b50505050508152602001600282015481525050815260200190600101906105c9565b50505050905090565b6002818154811061070657600080fd5b90600052602060002090600302016000915090508060000160009054906101000a900473ffffffffffffffffffffffffffffffffffffffff169080600101805461074f9061118f565b80601f016020809104026020016040519081016040528092919081815260200182805461077b9061118f565b80156107c85780601f1061079d576101008083540402835291602001916107c8565b820191906000526020600020905b8154815290600101906020018083116107ab57829003601f168201915b5050505050908060020154905083565b61086e816040516024016107ec9190610ebc565b6040516020818303038152906040527f41304fac000000000000000000000000000000000000000000000000000000007bffffffffffffffffffffffffffffffffffffffffffffffffffffffff19166020820180517bffffffffffffffffffffffffffffffffffffffffffffffffffffffff83818316178352505050506109a9565b50565b6109098282604051602401610887929190610ede565b6040516020818303038152906040527f319af333000000000000000000000000000000000000000000000000000000007bffffffffffffffffffffffffffffffffffffffffffffffffffffffff19166020820180517bffffffffffffffffffffffffffffffffffffffffffffffffffffffff83818316178352505050506109a9565b5050565b6109a58282604051602401610923929190610f0e565b6040516020818303038152906040527f9710a9d0000000000000000000000000000000000000000000000000000000007bffffffffffffffffffffffffffffffffffffffffffffffffffffffff19166020820180517bffffffffffffffffffffffffffffffffffffffffffffffffffffffff83818316178352505050506109a9565b5050565b60008151905060006a636f6e736f6c652e6c6f679050602083016000808483855afa5050505050565b8280546109de9061118f565b90600052602060002090601f016020900481019282610a005760008555610a47565b82601f10610a1957805160ff1916838001178555610a47565b82800160010185558215610a47579182015b82811115610a46578251825591602001919060010190610a2b565b5b509050610a549190610a58565b5090565b5b80821115610a71576000816000905550600101610a59565b5090565b6000610a88610a838461101a565b610fe9565b905082815260208101848484011115610aa057600080fd5b610aab84828561114d565b509392505050565b600081359050610ac2816112bf565b92915050565b600082601f830112610ad957600080fd5b8135610ae9848260208601610a75565b91505092915050565b600081359050610b01816112d6565b92915050565b600060208284031215610b1957600080fd5b6000610b2784828501610ab3565b91505092915050565b600060208284031215610b4257600080fd5b600082013567ffffffffffffffff811115610b5c57600080fd5b610b6884828501610ac8565b91505092915050565b600060208284031215610b8357600080fd5b6000610b9184828501610af2565b91505092915050565b6000610ba68383610dd9565b905092915050565b610bb781611111565b82525050565b610bc681611111565b82525050565b6000610bd78261105a565b610be1818561107d565b935083602082028501610bf38561104a565b8060005b85811015610c2f5784840389528151610c108582610b9a565b9450610c1b83611070565b925060208a01995050600181019050610bf7565b50829750879550505050505092915050565b6000610c4c82611065565b610c568185611099565b9350610c6681856020860161115c565b610c6f816112ae565b840191505092915050565b6000610c8582611065565b610c8f81856110aa565b9350610c9f81856020860161115c565b610ca8816112ae565b840191505092915050565b6000610cc06027836110aa565b91507f4661696c656420746f207769746864726177206d6f6e65792066726f6d20636f60008301527f6e74726163742e000000000000000000000000000000000000000000000000006020830152604082019050919050565b6000610d26600a836110aa565b91507f57616974203330736563000000000000000000000000000000000000000000006000830152602082019050919050565b6000610d666035836110aa565b91507f547279696e6720746f207769746864726177206d6f7265206d6f6e657920746860008301527f616e207468657920636f6e7472616374206861732e00000000000000000000006020830152604082019050919050565b6000610dcc60008361108e565b9150600082019050919050565b6000606083016000830151610df16000860182610bae565b5060208301518482036020860152610e098282610c41565b9150506040830151610e1e6040860182610e29565b508091505092915050565b610e3281611143565b82525050565b610e4181611143565b82525050565b6000610e5282610dbf565b9150819050919050565b6000606082019050610e716000830186610bbd565b8181036020830152610e838185610c7a565b9050610e926040830184610e38565b949350505050565b60006020820190508181036000830152610eb48184610bcc565b905092915050565b60006020820190508181036000830152610ed68184610c7a565b905092915050565b60006040820190508181036000830152610ef88185610c7a565b9050610f076020830184610bbd565b9392505050565b60006040820190508181036000830152610f288185610c7a565b9050610f376020830184610e38565b9392505050565b60006020820190508181036000830152610f5781610cb3565b9050919050565b60006020820190508181036000830152610f7781610d19565b9050919050565b60006020820190508181036000830152610f9781610d59565b9050919050565b6000602082019050610fb36000830184610e38565b92915050565b6000604082019050610fce6000830185610e38565b8181036020830152610fe08184610c7a565b90509392505050565b6000604051905081810181811067ffffffffffffffff821117156110105761100f61127f565b5b8060405250919050565b600067ffffffffffffffff8211156110355761103461127f565b5b601f19601f8301169050602081019050919050565b6000819050602082019050919050565b600081519050919050565b600081519050919050565b6000602082019050919050565b600082825260208201905092915050565b600081905092915050565b600082825260208201905092915050565b600082825260208201905092915050565b60006110c682611143565b91506110d183611143565b9250827fffffffffffffffffffffffffffffffffffffffffffffffffffffffffffffffff03821115611106576111056111f2565b5b828201905092915050565b600061111c82611123565b9050919050565b600073ffffffffffffffffffffffffffffffffffffffff82169050919050565b6000819050919050565b82818337600083830152505050565b60005b8381101561117a57808201518184015260208101905061115f565b83811115611189576000848401525b50505050565b600060028204905060018216806111a757607f821691505b602082108114156111bb576111ba611250565b5b50919050565b60006111cc82611143565b91506111d783611143565b9250826111e7576111e6611221565b5b828206905092915050565b7f4e487b7100000000000000000000000000000000000000000000000000000000600052601160045260246000fd5b7f4e487b7100000000000000000000000000000000000000000000000000000000600052601260045260246000fd5b7f4e487b7100000000000000000000000000000000000000000000000000000000600052602260045260246000fd5b7f4e487b7100000000000000000000000000000000000000000000000000000000600052604160045260246000fd5b6000601f19601f8301169050919050565b6112c881611111565b81146112d357600080fd5b50565b6112df81611143565b81146112ea57600080fd5b5056fea2646970667358221220d99693dddd64f49a7fb8de541d46226cd3361a2100417cbf1c9f374922e54d3364736f6c63430008000033",
  "linkReferences": {},
  "deployedLinkReferences": {}
}