{
  "_format": "hh-sol-artifact-1",
  "contractName": "WebPortal",
  "sourceName": "contracts/WebPortal.sol",
  "abi": [
    {
      "inputs": [],
      "stateMutability": "nonpayable",
      "type": "constructor"
    },
    {
      "anonymous": false,
      "inputs": [
        {
          "indexed": true,
          "internalType": "address",
          "name": "from",
          "type": "address"
        },
        {
          "indexed": false,
          "internalType": "uint256",
          "name": "timestamp",
          "type": "uint256"
        },
        {
          "indexed": false,
          "internalType": "string",
          "name": "message",
          "type": "string"
        }
      ],
      "name": "NewWave",
      "type": "event"
    },
    {
      "inputs": [],
      "name": "getAllWaves",
      "outputs": [
        {
          "components": [
            {
              "internalType": "address",
              "name": "waver",
              "type": "address"
            },
            {
              "internalType": "string",
              "name": "message",
              "type": "string"
            },
            {
              "internalType": "uint256",
              "name": "timestamp",
              "type": "uint256"
            }
          ],
          "internalType": "struct WebPortal.Wave[]",
          "name": "",
          "type": "tuple[]"
        }
      ],
      "stateMutability": "view",
      "type": "function"
    },
    {
      "inputs": [],
      "name": "getTotalWaves",
      "outputs": [
        {
          "internalType": "uint256",
          "name": "",
          "type": "uint256"
        }
      ],
      "stateMutability": "view",
      "type": "function"
    },
    {
      "inputs": [],
      "name": "totalWaves",
      "outputs": [
        {
          "internalType": "uint256",
          "name": "",
          "type": "uint256"
        }
      ],
      "stateMutability": "view",
      "type": "function"
    },
    {
      "inputs": [
        {
          "internalType": "string",
          "name": "_message",
          "type": "string"
        }
      ],
      "name": "wave",
      "outputs": [],
      "stateMutability": "nonpayable",
      "type": "function"
    },
    {
      "inputs": [
        {
          "internalType": "uint256",
          "name": "",
          "type": "uint256"
        }
      ],
      "name": "waves",
      "outputs": [
        {
          "internalType": "address",
          "name": "waver",
          "type": "address"
        },
        {
          "internalType": "string",
          "name": "message",
          "type": "string"
        },
        {
          "internalType": "uint256",
          "name": "timestamp",
          "type": "uint256"
        }
      ],
      "stateMutability": "view",
      "type": "function"
    }
  ],
  "bytecode": "0x60806040523480156200001157600080fd5b506200005d6040518060400160405280601281526020017f536d61727420436f6e74726163746f6f6f7200000000000000000000000000008152506200006360201b620004fe1760201c565b620001f7565b62000103816040516024016200007a919062000170565b6040516020818303038152906040527f41304fac000000000000000000000000000000000000000000000000000000007bffffffffffffffffffffffffffffffffffffffffffffffffffffffff19166020820180517bffffffffffffffffffffffffffffffffffffffffffffffffffffffff83818316178352505050506200010660201b60201c565b50565b60008151905060006a636f6e736f6c652e6c6f679050602083016000808483855afa5050505050565b60006200013c8262000194565b6200014881856200019f565b93506200015a818560208601620001b0565b6200016581620001e6565b840191505092915050565b600060208201905081810360008301526200018c81846200012f565b905092915050565b600081519050919050565b600082825260208201905092915050565b60005b83811015620001d0578082015181840152602081019050620001b3565b83811115620001e0576000848401525b50505050565b6000601f19601f8301169050919050565b610df980620002076000396000f3fe608060405234801561001057600080fd5b50600436106100575760003560e01c8063291bcab31461005c578063449d46c01461007a5780639a2cdc0814610096578063bd43a908146100b4578063c781267a146100d2575b600080fd5b610064610104565b6040516100719190610b03565b60405180910390f35b610094600480360381019061008f919061081b565b61010a565b005b61009e610280565b6040516100ab9190610b03565b60405180910390f35b6100bc6102cb565b6040516100c99190610a4a565b60405180910390f35b6100ec60048036038101906100e7919061085c565b61041c565b6040516100fb93929190610a0c565b60405180910390f35b60005481565b60008081548092919061011c90610cc5565b91905055506101616040518060400160405280601b81526020017f25732c2068617320776176656420772f206d65737361676520257300000000008152503383610597565b600160405180606001604052803373ffffffffffffffffffffffffffffffffffffffff16815260200183815260200142815250908060018154018082558091505060019003906000526020600020906003020160009091909190915060008201518160000160006101000a81548173ffffffffffffffffffffffffffffffffffffffff021916908373ffffffffffffffffffffffffffffffffffffffff16021790555060208201518160010190805190602001906102209291906106fb565b506040820151816002015550503373ffffffffffffffffffffffffffffffffffffffff167f5f7e16dc676677766a70e9c5628aa6c54ddb8b6e5188e2ae1e1f17f1ffbea7164283604051610275929190610b1e565b60405180910390a250565b60006102c36040518060400160405280601781526020017f7765206861766520256420746f74616c20776176657321000000000000000000815250600054610636565b600054905090565b60606001805480602002602001604051908101604052809291908181526020016000905b8282101561041357838290600052602060002090600302016040518060600160405290816000820160009054906101000a900473ffffffffffffffffffffffffffffffffffffffff1673ffffffffffffffffffffffffffffffffffffffff1673ffffffffffffffffffffffffffffffffffffffff16815260200160018201805461037890610c93565b80601f01602080910402602001604051908101604052809291908181526020018280546103a490610c93565b80156103f15780601f106103c6576101008083540402835291602001916103f1565b820191906000526020600020905b8154815290600101906020018083116103d457829003601f168201915b50505050508152602001600282015481525050815260200190600101906102ef565b50505050905090565b6001818154811061042c57600080fd5b90600052602060002090600302016000915090508060000160009054906101000a900473ffffffffffffffffffffffffffffffffffffffff169080600101805461047590610c93565b80601f01602080910402602001604051908101604052809291908181526020018280546104a190610c93565b80156104ee5780601f106104c3576101008083540402835291602001916104ee565b820191906000526020600020905b8154815290600101906020018083116104d157829003601f168201915b5050505050908060020154905083565b610594816040516024016105129190610a6c565b6040516020818303038152906040527f41304fac000000000000000000000000000000000000000000000000000000007bffffffffffffffffffffffffffffffffffffffffffffffffffffffff19166020820180517bffffffffffffffffffffffffffffffffffffffffffffffffffffffff83818316178352505050506106d2565b50565b6106318383836040516024016105af93929190610a8e565b6040516020818303038152906040527fe0e9ad4f000000000000000000000000000000000000000000000000000000007bffffffffffffffffffffffffffffffffffffffffffffffffffffffff19166020820180517bffffffffffffffffffffffffffffffffffffffffffffffffffffffff83818316178352505050506106d2565b505050565b6106ce828260405160240161064c929190610ad3565b6040516020818303038152906040527f9710a9d0000000000000000000000000000000000000000000000000000000007bffffffffffffffffffffffffffffffffffffffffffffffffffffffff19166020820180517bffffffffffffffffffffffffffffffffffffffffffffffffffffffff83818316178352505050506106d2565b5050565b60008151905060006a636f6e736f6c652e6c6f679050602083016000808483855afa5050505050565b82805461070790610c93565b90600052602060002090601f0160209004810192826107295760008555610770565b82601f1061074257805160ff1916838001178555610770565b82800160010185558215610770579182015b8281111561076f578251825591602001919060010190610754565b5b50905061077d9190610781565b5090565b5b8082111561079a576000816000905550600101610782565b5090565b60006107b16107ac84610b7f565b610b4e565b9050828152602081018484840111156107c957600080fd5b6107d4848285610c51565b509392505050565b600082601f8301126107ed57600080fd5b81356107fd84826020860161079e565b91505092915050565b60008135905061081581610dac565b92915050565b60006020828403121561082d57600080fd5b600082013567ffffffffffffffff81111561084757600080fd5b610853848285016107dc565b91505092915050565b60006020828403121561086e57600080fd5b600061087c84828501610806565b91505092915050565b6000610891838361099e565b905092915050565b6108a281610c15565b82525050565b6108b181610c15565b82525050565b60006108c282610bbf565b6108cc8185610be2565b9350836020820285016108de85610baf565b8060005b8581101561091a57848403895281516108fb8582610885565b945061090683610bd5565b925060208a019950506001810190506108e2565b50829750879550505050505092915050565b600061093782610bca565b6109418185610bf3565b9350610951818560208601610c60565b61095a81610d9b565b840191505092915050565b600061097082610bca565b61097a8185610c04565b935061098a818560208601610c60565b61099381610d9b565b840191505092915050565b60006060830160008301516109b66000860182610899565b50602083015184820360208601526109ce828261092c565b91505060408301516109e360408601826109ee565b508091505092915050565b6109f781610c47565b82525050565b610a0681610c47565b82525050565b6000606082019050610a2160008301866108a8565b8181036020830152610a338185610965565b9050610a4260408301846109fd565b949350505050565b60006020820190508181036000830152610a6481846108b7565b905092915050565b60006020820190508181036000830152610a868184610965565b905092915050565b60006060820190508181036000830152610aa88186610965565b9050610ab760208301856108a8565b8181036040830152610ac98184610965565b9050949350505050565b60006040820190508181036000830152610aed8185610965565b9050610afc60208301846109fd565b9392505050565b6000602082019050610b1860008301846109fd565b92915050565b6000604082019050610b3360008301856109fd565b8181036020830152610b458184610965565b90509392505050565b6000604051905081810181811067ffffffffffffffff82111715610b7557610b74610d6c565b5b8060405250919050565b600067ffffffffffffffff821115610b9a57610b99610d6c565b5b601f19601f8301169050602081019050919050565b6000819050602082019050919050565b600081519050919050565b600081519050919050565b6000602082019050919050565b600082825260208201905092915050565b600082825260208201905092915050565b600082825260208201905092915050565b6000610c2082610c27565b9050919050565b600073ffffffffffffffffffffffffffffffffffffffff82169050919050565b6000819050919050565b82818337600083830152505050565b60005b83811015610c7e578082015181840152602081019050610c63565b83811115610c8d576000848401525b50505050565b60006002820490506001821680610cab57607f821691505b60208210811415610cbf57610cbe610d3d565b5b50919050565b6000610cd082610c47565b91507fffffffffffffffffffffffffffffffffffffffffffffffffffffffffffffffff821415610d0357610d02610d0e565b5b600182019050919050565b7f4e487b7100000000000000000000000000000000000000000000000000000000600052601160045260246000fd5b7f4e487b7100000000000000000000000000000000000000000000000000000000600052602260045260246000fd5b7f4e487b7100000000000000000000000000000000000000000000000000000000600052604160045260246000fd5b6000601f19601f8301169050919050565b610db581610c47565b8114610dc057600080fd5b5056fea2646970667358221220988e9a3f021c520533d5788473e606b1380117820664d7b61fd558560105be7264736f6c63430008000033",
  "linkReferences": {},
  "deployedLinkReferences": {}
}